:020000040800F2
:10000000FFFF0420D5280008A9020008B502000857
:10001000BD020008C5020008CD0200080000000073
:10002000000000000000000000000000D5020008F1
:10003000E102000800000000ED020008F9020008DB
:100040002529000825290008252900082529000858
:100050002529000825290008252900082529000848
:100060002529000825290008252900082529000838
:100070002529000825290008252900082529000828
:100080002529000825290008252900082529000818
:100090002529000825290008252900082529000808
:1000A00025290008252900082529000825290008F8
:1000B00025290008252900082529000825290008E8
:1000C00025290008252900082529000825290008D8
:1000D00025290008252900082529000825290008C8
:1000E00011030008252900082529000825290008F2
:1000F00025290008252900082529000825290008A8
:100100002529000825290008252900082529000897
:100110002529000825290008252900082529000887
:100120002529000825290008252900082529000877
:100130002529000825290008252900082529000867
:100140002529000825290008252900082529000857
:100150002529000825290008252900082529000847
:100160002529000825290008252900082529000837
:10017000252900082529000825290008000000007D
:100180002529000825290008252900082529000817
:100190002529000825290008252900082529000807
:1001A00025290008252900082529000825290008F7
:1001B00025290008252900082529000825290008E7
:0801C00025290008252900088B
:1001C800044B05481B1A062B02D9044B03B11847E8
:1001D800704700BF231901202019012000000000EA
:1001E80005490648091A891001EBD171491002D056
:1001F800034B03B11847704720190120201901202B
:100208000000000010B5064C237843B9FFF7D8FF6B
:10021800044B13B10448AFF300800123237010BDD1
:100228002019012000000000642A000808B5084BC6
:100238001BB108490848AFF300800848036813B9A0
:10024800BDE80840CCE7064B002BF9D09847F7E704
:100258000000000024190120642A00082019012048
:100268000000000080B500AF00F00CF8012000F09D
:100278004BFA002000F048FA4FF4FA7000F078F9D1
:10028800F4E700BF80B500AF00F096F900BF80BD6D
:1002980080B500AF00F05EFA00F03CF800BF80BD0A
:1002A80080B400AF00BFBD4680BC704780B400AFCB
:1002B800FEE700BF80B400AFFEE700BF80B400AF28
:1002C800FEE700BF80B400AFFEE700BF80B400AF18
:1002D80000BFBD4680BC704780B400AF00BFBD46BC
:1002E80080BC704780B400AF00BFBD4680BC70477B
:1002F80080B500AF00F0A4FA00BF80BD80B400AFA5
:1003080000BFBD4680BC704780B400AF00BFBD468B
:1003180080BC704780B592B000AF002387F84730A3
:1003280001233B604FF480337B600223BB614FF4B1
:100338008003FB6119233B624FF4D8737B6202236D
:10034800BB620923FB623B46184601F00FFC0346DB
:1003580087F8473097F84730002B00D0FEE701F0C8
:100368003BFA034687F8473097F84730002B00D010
:10037800FEE70F233B6302237B630023BB634FF439
:10038800A053FB634FF480533B6407F1300307210C
:10039800184601F0C1FE034687F8473097F8473002
:1003A800002B00D0FEE700BF4837BD4680BD00BF28
:1003B80080B400AF114A114B1B6843F0010313606E
:1003C8000E4B00229A600D490C4B1A680C4B1340D7
:1003D8000B600A4B0B4A5A60084A084B1B6823F407
:1003E80080231360054B0022DA60074B4FF0006250
:1003F8009A6000BFBD4680BC704700BF003802400D
:10040800FFFFF6FE1030002400ED00E080B487B056
:1004180000AF00233B6100237B610223FB600023C4
:10042800BB6002237B60324B9B6803F00C033B618B
:100438003B69042B07D0082B09D0002B3FD12D4B4B
:100448002D4A1A603FE02B4B2C4A1A603BE0284BA0
:100458005B6803F480039B0DBB60254B5B6803F06E
:100468003F037B60BB68002B0DD0244A7B68B2FB3E
:10047800F3F21F4B596847F6C0730B409B0903FB07
:1004880002F37B610CE01C4A7B68B2FBF3F2184B69
:10049800596847F6C0730B409B0903FB02F37B6165
:1004A800134B5B6803F440331B0C01335B00FB60A8
:1004B8007A69FB68B2FBF3F30E4A136003E00D4B55
:1004C8000D4A1A6000BF0A4B9B6803F0F0031B0932
:1004D8000B4AD35C3B61074B1A683B6922FA03F36A
:1004E800044A136000BF1C37BD4680BC704700BF7C
:1004F80000380240F01401200024F40040787D0107
:100508007C2A000880B400AF00BFBD4680BC70479D
:1005180080B483B000AF0346FB71002318460C3744
:10052800BD4680BC704700BF80B485B000AF78601E
:100538000023FB6002E0FB680133FB607B68064A2E
:10054800A2FB0323DA08FB689A42F4D800BF1437E9
:10055800BD4680BC704700BFCDCCCCCC80B483B046
:1005680000AF786000BF0C37BD4680BC704700BF45
:1005780080B586B000AF786000F0E4F803467B6190
:1005880000F0E0F80346FB6000F0DCF803463B614E
:100598003A69FB689A4201D23B6900E0FB68FB605C
:1005A800FA6879697B680B449A4200D8E8E700BF8B
:1005B80000BF1837BD4680BD80B500AFFFF768FEA5
:1005C80000F004F8FFF79EFF00BF80BD80B588B03B
:1005D80000AF0023BB60294A284B1B6B43F0020382
:1005E8001363264B1B6B03F00203BB60BB6800233D
:1005F8007B60224A214B1B6B43F4807313631F4BB0
:100608001B6B03F480737B607B6800233B601B4A91
:100618001A4B1B6B43F080031363184B1B6B03F0DF
:1006280080033B603B6800228021154800F0A4FF4E
:1006380000220221134800F09FFF8023FB60012362
:100648003B6100237B610023BB6107F10C03194662
:100658000B4800F0C3FC0223FB6001233B6100232D
:100668007B610023BB6107F10C031946054800F0C4
:10067800B5FC00BF2037BD4680BD00BF0038024032
:10068800000402400020024080B582B000AF03465B
:10069800FB71FB79002B02D0012B06D00BE0012265
:1006A8008021074800F068FF05E001220221054883
:1006B80000F062FF00BF00BF0837BD4680BD00BF25
:1006C800000402400020024080B582B000AF03461B
:1006D800FB71FB79002B02D0012B06D00BE0002226
:1006E8008021074800F048FF05E000220221054864
:1006F80000F042FF00BF00BF0837BD4680BD00BF05
:10070800000402400020024080B582B000AF0346DA
:10071800FB71FB79002B02D0012B05D009E0802169
:10072800064800F041FF04E00221054800F03CFFC4
:1007380000BF00BF0837BD4680BD00BF00040240AF
:100748000020024080B500AF00F088F80346184644
:1007580080BD00BF80B500AF084A084B1B6843F452
:1007680000731360032000F019FB002000F04CF820
:1007780000F07AFF0023184680BD00BF003C02400D
:1007880080B500AF134B4FF0FF321A62114B0022B5
:100798001A62104B4FF0FF325A620E4B00225A6217
:1007A8000C4B4FF0FF321A610A4B00221A61094BB9
:1007B8004FF0FF325A61074B00225A61054B4FF048
:1007C800FF329A61034B00229A6100F053FF002325
:1007D800184680BD0038024080B483B000AF0023C3
:1007E8007B607B6800BF0C37BD4680BC704700BF8C
:1007F80080B483B000AF00237B607B6800BF0C37F8
:10080800BD4680BC704700BF80B582B000AF78603D
:1008180001F0E6FE0246094BA3FB02239B0918469A
:1008280000F006FB002279684FF0FF3000F0C2FAB2
:10083800002318460837BD4680BD00BFD34D62105F
:1008480080B400AF044B1B680133034A136000BF38
:10085800BD4680BC704700BF3C19012080B400AF82
:10086800024B1B681846BD4680BC70473C190120E6
:1008780080B584B000AF78600023FB60FFF7EEFF1F
:10088800F86000BFFFF7EAFF0246FB68D21A7B68F0
:100898009A42F7D300BF1037BD4680BD80B400AF81
:1008A800044A044B1B6823F00203136000BFBD46D3
:1008B80080BC704710E000E080B400AF044A044BED
:1008C8001B6843F00203136000BFBD4680BC70473D
:1008D80010E000E080B400AF024B1846BD4680BC73
:1008E800704700BF0003000180B400AF034B1B68D2
:1008F8001B0C1846BD4680BC704700BF002004E0B2
:1009080080B400AF034B1B68C3F30B031846BD4606
:1009180080BC7047002004E080B400AF044A044B58
:100928005B6843F00103536000BFBD4680BC70475D
:10093800002004E080B400AF044A044B5B6823F055
:100948000103536000BFBD4680BC7047002004E02F
:1009580080B400AF044A044B5B6843F00203536061
:1009680000BFBD4680BC7047002004E080B400AFE3
:10097800044A044B5B6823F00203536000BFBD4682
:1009880080BC7047002004E080B400AF044A044BE8
:100998005B6843F00403536000BFBD4680BC7047EA
:1009A800002004E080B400AF044A044B5B6823F0E5
:1009B8000403536000BFBD4680BC7047002004E0BC
:1009C80080B400AF044A044B1B6A43F0010313626E
:1009D80000BFBD4680BC70470038014080B400AFFE
:1009E800044A044B1B6A23F00103136200BFBD468F
:1009F80080BC70470038014080B400AF044A044B03
:100A08001B6843F48063136000BFBD4680BC704719
:100A18000038014080B400AF044A044B1B6823F43B
:100A28004063136000BFBD4680BC7047003801407A
:100A380080B485B000AF78607B6803F00703FB6083
:100A48000B4BDB68BB60BA684FF6FF031340BB6013
:100A5800FB681A02BB681A43064B1343BB60044A7F
:100A6800BB68D36000BF1437BD4680BC704700BF69
:100A780000ED00E00000FA0580B400AF044BDB682D
:100A880003F4E0631B0A1846BD4680BC704700BFEC
:100A980000ED00E080B483B000AF0346FB71084965
:100AA80097F907305B09FA7902F01F02012000FA72
:100AB80002F241F8232000BF0C37BD4680BC7047C6
:100AC80000E100E080B483B000AF0346FB71094940
:100AD80097F907305B09FA7902F01F02012000FA42
:100AE80002F2203341F8232000BF0C37BD4680BCFA
:100AF800704700BF00E100E080B483B000AF034658
:100B0800FB71094A97F907305B09403352F82320F3
:100B1800FB7903F01F0322FA03F303F001031846DD
:100B28000C37BD4680BC704700E100E080B483B05C
:100B380000AF0346FB71094997F907305B09FA7959
:100B480002F01F02012000FA02F2403341F823208C
:100B580000BF0C37BD4680BC704700BF00E100E015
:100B680080B483B000AF0346FB71094997F9073099
:100B78005B09FA7902F01F02012000FA02F26033E1
:100B880041F8232000BF0C37BD4680BC704700BF2A
:100B980000E100E080B483B000AF0346FB71094A6E
:100BA80097F907305B09803352F82320FB7903F06B
:100BB8001F0322FA03F303F0010318460C37BD465E
:100BC80080BC704700E100E080B483B000AF03460A
:100BD8003960FB7197F90730002B0BDA0D49FB7967
:100BE80003F00F03043B3A68D2B21201D2B20B44AD
:100BF8001A7609E0084997F907303A68D2B2120123
:100C0800D2B20B4483F8002300BF0C37BD4680BC2A
:100C1800704700BF00ED00E000E100E080B483B061
:100C280000AF0346FB7197F90730002B0ADA0C4A2C
:100C3800FB7903F00F03043B13441B7EDBB21B0953
:100C4800DBB208E0074A97F90730134493F80033FA
:100C5800DBB21B09DBB218460C37BD4680BC7047B7
:100C680000ED00E000E100E080B489B000AFF8607A
:100C7800B9607A60FB6803F00703FB61FB69C3F1A5
:100C88000703042B28BF0423BB61FB690433062B2D
:100C980002D9FB69033B00E000237B610122BB69A9
:100CA80002FA03F35A1EBB681A407B699A40012175
:100CB8007B6901FA03F3591E7B680B4013431846FE
:100CC8002437BD4680BC704780B489B000AFF86057
:100CD800B9607A603B60BB6803F00703FB61FB699E
:100CE800C3F10703042B28BF0423BB61FB6904334A
:100CF800062B02D9FB69033B00E000237B61FA68FD
:100D08007B69DA400121BB6901FA03F3013B1A4010
:100D18007B681A6001227B6902FA03F35A1EFB689A
:100D28001A403B681A6000BF2437BD4680BC704734
:100D380080B400AFBFF34F8F0549054BDB6803F460
:100D4800E062044B1343CB60BFF34F8F00BFFDE756
:100D580000ED00E00400FA0580B582B000AF7860CD
:100D68007B68013BB3F1807F01D301230FE00A4A7E
:100D78007B68013B53600F214FF0FF30FFF724FFE2
:100D8800054B00229A60044B07221A60002318467C
:100D98000837BD4680BD00BF10E000E080B582B0D6
:100DA80000AF78607868FFF743FE00BF0837BD469C
:100DB80080BD00BF80B586B000AF0346B9607A60D9
:100DC800FB7300237B61FFF757FE78617A68B96887
:100DD8007869FFF749FF024697F90F301146184620
:100DE800FFF7F2FE00BF1837BD4680BD80B582B060
:100DF80000AF0346FB7197F907301846FFF74AFE24
:100E080000BF0837BD4680BD80B582B000AF03463D
:100E1800FB7197F907301846FFF754FE00BF0837F3
:100E2800BD4680BD80B500AFFFF782FF00BF80BD23
:100E380080B582B000AF78607868FFF78DFF034611
:100E480018460837BD4680BD80B483B000AF7860CF
:100E58001D4A7B685B7893607B681B78002B28D0E1
:100E6800194A7B685B68D36017497B681B7B1A0744
:100E78007B68DB7A1B061A437B689B7ADB041A4380
:100E88007B685B7B9B041A437B689B7B5B041A43F0
:100E98007B68DB7B1B041A437B685B7A1B021A4363
:100EA8007B681B7A5B0013437A68127813430B61E3
:100EB80005E0054B0022DA60034B00221A6100BFEF
:100EC8000C37BD4680BC704790ED00E080B500AFA0
:100ED800FFF7D2FD0346184680BD00BF80B584B039
:100EE80000AFB9607A603B600346FB7397F90F3037
:100EF8001846FFF793FE3B687A68B968FFF7E4FE87
:100F080000BF1037BD4680BD80B582B000AF034634
:100F1800FB7197F907301846FFF708FE00BF08373E
:100F2800BD4680BD80B582B000AF0346FB7197F91E
:100F380007301846FFF7E0FD034618460837BD4658
:100F480080BD00BF80B582B000AF0346FB7197F942
:100F580007301846FFF704FE00BF0837BD4680BDBE
:100F680080B582B000AF0346FB7197F90730184689
:100F7800FFF710FE034618460837BD4680BD00BF80
:100F880080B483B000AF78607B68042B06D1094A2F
:100F9800084B1B6843F00403136005E0054A054B42
:100FA8001B6823F00403136000BF0C37BD4680BCE8
:100FB800704700BF10E000E080B500AF00F002F815
:100FC80000BF80BD80B483B000AF00237B607B6826
:100FD80000BF0C37BD4680BC704700BF80B489B0E5
:100FE80000AF786039600023FB6100237B61002338
:100FF8003B610023BB610023FB6177E10122FB69B0
:1010080002FA03F37B613B681A687B6913403B6112
:101018003A697B699A4240F066813B685B68022BBB
:1010280003D03B685B68122B23D1FB69DA087B6825
:10103800083253F82230BB61FB6903F007039B00B9
:101048000F2202FA03F3DB43BA691340BB613B6822
:101058001A69FB6903F007039B0002FA03F3BA69F4
:101068001343BB61FB69DA087B680832B96943F846
:1010780022107B681B68BB61FB695B00032202FAD4
:1010880003F3DB43BA691340BB613B685B6803F059
:101098000302FB695B0002FA03F3BA691343BB61FD
:1010A8007B68BA691A603B685B68012B0BD03B68A8
:1010B8005B68022B07D03B685B68112B03D03B6849
:1010C8005B68122B30D17B689B68BB61FB695B0056
:1010D800032202FA03F3DB43BA691340BB613B689E
:1010E800DA68FB695B0002FA03F3BA691343BB6170
:1010F8007B68BA699A607B685B68BB610122FB699F
:1011080002FA03F3DB43BA691340BB613B685B68CF
:101118001B0903F00102FB6902FA03F3BA691343DE
:10112800BB617B68BA695A607B68DB68BB61FB6935
:101138005B00032202FA03F3DB43BA691340BB6185
:101148003B689A68FB695B0002FA03F3BA691343C8
:10115800BB617B68BA69DA603B685B6803F08053FF
:10116800002B00F0C0800023FB60654A644B5B6C79
:1011780043F480435364624B5B6C03F48043FB602D
:10118800FB68604AFB699B08023352F82330BB6155
:10119800FB6903F003039B000F2202FA03F3DB430E
:1011A800BA691340BB617B68574A934237D07B6862
:1011B800564A934231D07B68554A93422BD07B687C
:1011C800544A934225D07B68534A93421FD07B6888
:1011D800524A934219D07B68514A934213D07B6894
:1011E800504A93420DD07B684F4A934207D07B68A0
:1011F8004E4A934201D1092312E00A2310E0082342
:101208000EE007230CE006230AE0052308E0042388
:1012180006E0032304E0022302E0012300E00023A8
:10122800FA6902F0030292009340BA691343BB6162
:101238003449FB699B080233BA6941F823203C4BC7
:101248001B68BB613B69DB43BA691340BB613B6800
:101258005B6803F48033002B03D0BA693B691343FE
:10126800BB61334ABB691360314B5B68BB613B6947
:10127800DB43BA691340BB613B685B6803F4003326
:10128800002B03D0BA693B691343BB61284ABB6989
:101298005360274B9B68BB613B69DB43BA691340CA
:1012A800BB613B685B6803F48013002B03D0BA6909
:1012B8003B691343BB611E4ABB6993601C4BDB68E7
:1012C800BB613B69DB43BA691340BB613B685B6840
:1012D80003F40013002B03D0BA693B691343BB61C5
:1012E800134ABB69D360FB690133FB61FB690F2BB0
:1012F8007FF684AE00BF2437BD4680BC704700BF70
:10130800003802400038014000000240000402405A
:1013180000080240000C0240001002400014024085
:1013280000180240001C0240002002400024024035
:10133800003C014080B487B000AF7860396000237A
:101348003B610023FB600023BB6000237B61DAE084
:1013580001227B6902FA03F33B613A683B69134057
:10136800FB60FA683B699A4240F0CA807B681A6859
:101378007B695B00032101FA03F3DB431A407B68B6
:101388001A607B69DA087B69D9087B68083153F8E9
:1013980021107B6903F007039B000F2000FA03F379
:1013A800DB4319407B68083243F822107B689A684F
:1013B8007B695B00032101FA03F3DB431A407B6876
:1013C8009A607B685A6801217B6901FA03F3DB4361
:1013D8001A407B685A607B68DA687B695B00032186
:1013E80001FA03F3DB431A407B68DA604A4A7B69F7
:1013F8009B08023352F82330BB607B6903F0030378
:101408009B000F2202FA03F3BA681340BB607B68A3
:10141800424A934237D07B68414A934231D07B6835
:10142800404A93422BD07B683F4A934225D07B6841
:101438003E4A93421FD07B683D4A934219D07B684D
:101448003C4A934213D07B683B4A93420DD07B6859
:101458003A4A934207D07B68394A934201D109231B
:1014680012E00A2310E008230EE007230CE006230D
:101478000AE0052308E0042306E0032304E002232E
:1014880002E0012300E000237A6902F003029200DF
:1014980003FA02F2BB689A4232D17B6903F0030374
:1014A8009B000F2202FA03F3BB601B487B699B0871
:1014B80019497A699208023251F82210BA68D2435F
:1014C8000A40023340F823201E491E4B1A68FB6865
:1014D800DB4313400B601B491A4B5A68FB68DB431C
:1014E80013404B601749174B9A68FB68DB4313405E
:1014F8008B601449134BDA68FB68DB431340CB60FD
:101508007B6901337B617B690F2B7FF621AF00BFBD
:101518001C37BD4680BC70470038014000000240BF
:101528000004024000080240000C02400010024083
:101538000014024000180240001C02400020024033
:1015480000240240003C014080B485B000AF7860C0
:101558000B467B807B681A697B881340002B02D07E
:101568000123FB7301E00023FB73FB7B1846143750
:10157800BD4680BC704700BF80B483B000AF7860C0
:101588000B467B8013467B707B78002B03D07A88D0
:101598007B689A6103E07B881A047B689A6100BFC4
:1015A8000C37BD4680BC704780B483B000AF78600C
:1015B8000B467B807B685A697B885A407B685A61F6
:1015C80000BF0C37BD4680BC704700BF80B485B0F3
:1015D80000AF78600B467B804FF48033FB607A88DD
:1015E800FB681343FB60FA687B68DA617A887B687A
:1015F800DA61FA687B68DA617B68DB69FB607B68C3
:10160800DB6903F48033002B01D0002300E00123C1
:1016180018461437BD4680BC704700BF80B582B0FD
:1016280000AF0346FB80084B5A69FB881340002B28
:1016380006D0054AFB885361FB88184600F006F877
:1016480000BF0837BD4680BD003C014080B485B06E
:1016580000AF0346FB800023FB60FB6800BF143724
:10166800BD4680BC704700BF80B400AF00BFBD4618
:1016780080BC704780B400AF00BFBD4680BC7047D7
:1016880080B400AF00BFBD4680BC704780B400AFD7
:1016980000BFBD4680BC704780B582B000AF002354
:1016A8007B600F4A0E4B5B6843F400735360FFF78F
:1016B800D5F8786009E0FFF7D1F802467B68D31ABD
:1016C800B3F57A7F01D9032306E0054B5B6803F085
:1016D8000803002BEFD0002318460837BD4680BD0D
:1016E8000070004080B582B000AF00237B600F4AD5
:1016F8000E4B5B6823F400735360FFF7AFF8786014
:1017080009E0FFF7ABF802467B68D31AB3F57A7F96
:1017180001D9032306E0054B5B6803F00803002B9F
:10172800EFD1002318460837BD4680BD0070004041
:1017380080B400AF044A044B1B6843F40073136081
:1017480000BFBD4680BC70470070004080B400AF49
:10175800044A044B1B6823F40073136000BFBD46A2
:1017680080BC70470070004080B400AF044A044B4E
:101778001B6843F40063136000BFBD4680BC70471C
:101788000070004080B400AF044A044B1B6823F487
:101798000063136000BFBD4680BC70470070004006
:1017A80080B400AF044A044B1B6843F480631360A1
:1017B80000BFBD4680BC70470070004080B400AFD9
:1017C800044A044B1B6823F48063136000BFBD46C2
:1017D80080BC70470070004080B582B000AF002325
:1017E8007B6000233B60224A214B1B6C43F08053F3
:1017F80013641F4B1B6C03F080533B603B681D4A0E
:101808001C4B1B6843F480331360FFF727F878609C
:1018180009E0FFF723F802467B68D31AB3F57A7F0D
:1018280001D9032320E0134B5B6803F48033002BBA
:10183800EFD0104A0F4B1B6843F400331360FFF7D7
:101848000DF8786009E0FFF709F802467B68D31ABB
:10185800B3F57A7F01D9032306E0064B5B6803F4EE
:101868000033002BEFD0002318460837BD4680BD53
:10187800003802400070004080B582B000AF0023FD
:101888007B6000233B60224A214B1B6C43F0805352
:1018980013641F4B1B6C03F080533B603B681D4A6D
:1018A8001C4B1B6823F400331360FEF7D7FF7860E6
:1018B80009E0FEF7D3FF02467B68D31AB3F57A7FB7
:1018C80001D9032320E0134B5B6803F40033002B9A
:1018D800EFD1104A0F4B1B6823F480331360FEF7D7
:1018E800BDFF786009E0FEF7B9FF02467B68D31AAE
:1018F800B3F57A7F01D9032306E0064B5B6803F44E
:101908008033002BEFD1002318460837BD4680BD31
:10191800003802400070004080B586B000AF7860A3
:101928000B46FB7000237B6100233B610023FB60B7
:10193800284A284B1B6C43F080531364254B1B6CBF
:1019480003F08053FB60FB68234A234B5B6843F436
:1019580040235360204A204B1B6843F44023136004
:10196800FEF77CFF386109E0FEF778FF02463B6925
:10197800D31AB3F57A7F01D9032327E0164B5B68A6
:1019880003F44023B3F5402FEED0134B1B687B6163
:101998007A69124B13407B617A697B6813437B61D8
:1019A8000D4A7B6913600E4A0D4B1B6943F0040313
:1019B8001361FB78012B01D130BF00E020BF084A3A
:1019C800074B1B6923F004031361002318461837DB
:1019D800BD4680BD0038024000700040FCF3FFFFA8
:1019E80000ED00E080B400AF034B1B6803F44043F4
:1019F8001846BD4680BC70470070004080B586B070
:101A080000AF786000237B6100233B61374A374B86
:101A18001B6C43F080531364344B1B6C03F08053EE
:101A28003B613B69314B9B6803F00C03082B56D094
:101A38002E4A2E4B1B6823F080731360FEF70EFFAF
:101A4800786108E0FEF70AFF02467B69D31A642B27
:101A580001D9032346E0254B1B6803F00073002BD4
:101A6800F0D10023FB602249214B1B6823F440423C
:101A78007B6813430B601E4B1B6803F44043FB60F9
:101A8800FB681A4A194B1B6843F080731360FEF712
:101A9800E5FE786108E0FEF7E1FE02467B69D31AAD
:101AA800642B01D903231DE0104B1B6803F000735E
:101AB800002BF0D0FEF7D2FE786109E0FEF7CEFEEB
:101AC80002467B69D31AB3F57A7F01D9032309E06B
:101AD800074B5B6803F48043002BEFD001E0012340
:101AE80000E0002318461837BD4680BD0038024084
:101AF8000070004080B400AF184A184B1B6843F0D0
:101B080081031360154B00229A601449134B1A681D
:101B1800134B13400B60114B00225A600F490F4BB7
:101B28005A68104B13434B600C4B0022C3F88420B7
:101B38000A490A4BD3F884200B4B1343C1F884306D
:101B4800064A064B1B6823F480231360034B0022CC
:101B5800DA6000BFBD4680BC704700BF0038024055
:101B6800FFFFF6FA103000040030002080B58EB078
:101B780000AF786000237B637B681B6803F0010378
:101B8800002B00F0AB80A64B9B6803F00C03042BE2
:101B98000BD0A34B9B6803F00C03082B13D1A04B6D
:101BA8005B6803F48003002B0DD09D4B1B6803F486
:101BB8000033002B00F091807B685B68002B40F0BD
:101BC8008C800123A2E2964A954B1B6823F480334C
:101BD8001360934A924B1B6823F480231360904A46
:101BE8008F4B1B6823F480331360FEF737FE78634E
:101BF80009E0FEF733FE02467B6BD31AB3F5FA7F92
:101C080001D9032382E2864B1B6803F40033002BBF
:101C1800EFD1834A824B1B6823F4803313607B68BF
:101C28005B68B3F5803F0CD17D4A7D4B1B6823F47C
:101C3800802313607A4A7A4B1B6843F4803313601D
:101C48001DE07B685B68B3F5A02F0CD1744A744B18
:101C58001B6843F480231360714A714B1B6843F47B
:101C6800803313600BE06E4A6D4B1B6823F48023AE
:101C780013606B4A6A4B1B6823F4803313607B68DC
:101C88005B68002B14D0FEF7E9FD786309E0FEF7E6
:101C9800E5FD02467B6BD31AB3F5FA7F01D903231E
:101CA80034E25F4B1B6803F40033002BEFD015E0E0
:101CB800FEF7D4FD786309E0FEF7D0FD02467B6BA2
:101CC800D31AB3F5FA7F01D903231FE2544B1B68DB
:101CD80003F40033002BEFD100E000BF7B681B68E2
:101CE80003F00203002B7DD04D4B9B6803F00C03DF
:101CF800002B0BD04A4B9B6803F00C03082B26D112
:101D0800474B5B6803F48003002B20D1444B1B68CE
:101D180003F00203002B05D07B68DB68012B01D0A0
:101D28000123F3E13E483E4B1B6823F0F8027B6831
:101D38001969F8233B623B6A93FAA3F3FB61FB69D9
:101D4800B3FA83F301FA03F3134303604AE07B68B1
:101D5800DB68002B2DD0324A314B1B6843F001035E
:101D68001360FEF77BFD786308E0FEF777FD024617
:101D78007B6BD31A642B01D90323C7E1284B1B685B
:101D880003F00203002BF0D02548254B1B6823F0F5
:101D9800F8027B681969F823FB62FB6A93FAA3F3DC
:101DA800BB61BB69B3FA83F301FA03F3134303601E
:101DB80018E01B4A1A4B1B6823F001031360FEF757
:101DC8004DFD786308E0FEF749FD02467B6BD31AA8
:101DD800642B01D9032399E1114B1B6803F002031B
:101DE800002BF0D17B681B6803F00803002B39D067
:101DF8007B685B69002B1CD0094A094B5B6F43F079
:101E080001035367FEF72AFD78630BE0FEF726FD12
:101E180002467B6BD31A642B04D9032376E100BFF7
:101E280000380240A54B5B6F03F00203002BEDD096
:101E380018E0A24AA14B5B6F23F001035367FEF73A
:101E48000DFD786308E0FEF709FD02467B6BD31AA7
:101E5800642B01D9032359E1984B5B6F03F002030C
:101E6800002BF0D17B681B6803F00403002B00F003
:101E7800B1800023BB60914A904B1B6C43F08053A8
:101E880013648E4B1B6C03F08053BB60BB688C4A99
:101E98008B4B1B6843F480731360FEF7DFFC786399
:101EA80008E0FEF7DBFC02467B6BD31A642B01D9F2
:101EB80003232BE1824B1B6803F48073002BF0D0C3
:101EC8007E4A7E4B1B6F23F0010313677B4A7B4BD3
:101ED8001B6F23F004031367784A784B1B6F23F0BA
:101EE80001031367FEF7BAFC78630AE0FEF7B6FC55
:101EF80002467B6BD31A41F28832934201D90323FD
:101F080004E16E4B1B6F03F00203002BEED16B4A0A
:101F18006A4B1B6F23F0010313677B689B68012BD7
:101F28000CD1664A654B1B6F23F004031367634AA1
:101F3800624B1B6F43F0010313671CE07B689B68CF
:101F4800052B0CD15D4A5D4B1B6F43F004031367EF
:101F58005A4A5A4B1B6F43F0010313670BE0574A69
:101F6800564B1B6F23F004031367544A534B1B6FE4
:101F780023F0010313677B689B68002B15D0FEF7DD
:101F88006DFC78630AE0FEF769FC02467B6BD31AA6
:101F980041F28832934201D90323B7E0474B1B6FC4
:101FA80003F00203002BEED014E0FEF757FC786331
:101FB8000AE0FEF753FC02467B6BD31A41F28832E3
:101FC800934201D90323A1E03C4B1B6F03F00203AA
:101FD800002BEED17B689B69002B00F09680374B75
:101FE8009B6803F00C03082B00F08D807B689B69CD
:101FF800022B6ED1314A314B1B6823F0807313607A
:10200800FEF72CFC786308E0FEF728FC02467B6BA1
:10201800D31A642B01D9032378E0284B1B6803F0FB
:102028000073002BF0D125487B681A6A7B68596ACF
:1020380047F6C073BB62BB6A93FAA3F3FB60FB6805
:10204800B3FA83F301FA03F31A437B689B6A5B08CC
:10205800591E4FF440337B627B6A93FAA3F33B61CA
:102068003B69B3FA83F301FA03F31A437B68DB692C
:102078001A437B68D96A4FF070633B633B6B93FAF2
:10208800A3F37B617B69B3FA83F301FA03F3134388
:1020980043F000534360094A084B1B6843F08073C0
:1020A8001360FEF7DBFB78630CE0FEF7D7FB024614
:1020B8007B6BD31A642B05D9032327E00038024031
:1020C80000700040134B1B6803F00073002BECD02A
:1020D8001BE0104A0F4B1B6823F080731360FEF758
:1020E800BDFB786308E0FEF7B9FB02467B6BD31AA9
:1020F800642B01D9032309E0064B1B6803F0007326
:10210800002BF0D101E0012300E000231846383706
:10211800BD4680BD0038024080B584B000AF78600D
:1021280039600023FB60964B1B6803F00F023B6885
:102138009A4280F093809249914B1B6823F00F02DA
:102148003B6813430B608E4B1B6803F00F023B6820
:102158009A4201D001233AE17B681B6803F002032D
:10216800002B08D08749874B9B6823F0F0027B68D7
:102178009B6813438B607B681B6803F00103002B8B
:1021880000F002817B685B68012B07D17D4B1B68DF
:1021980003F40033002B15D1012318E17B685B6839
:1021A800022B07D1774B1B6803F00073002B09D172
:1021B80001230CE1734B1B6803F00203002B01D1D0
:1021C800012304E16F496F4B9B6823F003027B688E
:1021D8005B6813438B60FEF741FBF8607B685B68C4
:1021E800012B12D10AE0FEF739FB0246FB68D31A2D
:1021F80041F28832934201D90323E8E0614B9B689E
:1022080003F00C03042BEED1BEE07B685B68022B65
:102218001DD10AE0FEF722FB0246FB68D31A41F201
:102228008832934201D90323D1E0564B9B6803F0CF
:102238000C03082BEED1A7E0FEF710FB0246FB6863
:10224800D31A41F28832934201D90323BFE04D4BA0
:102258009B6803F00C03002BEED195E07B681B68AC
:1022680003F00203002B08D04649464B9B6823F035
:10227800F0027B689B6813438B607B681B6803F0E4
:102288000103002B6AD07B685B68012B07D13D4BAB
:102298001B6803F40033002B15D1012397E07B68FA
:1022A8005B68022B07D1374B1B6803F00073002BC8
:1022B80009D101238BE0334B1B6803F00203002B89
:1022C80001D1012383E02F492E4B9B6823F00302A1
:1022D8007B685B6813438B60FEF7C0FAF8607B6825
:1022E8005B68012B12D10AE0FEF7B8FA0246FB68D8
:1022F800D31A41F28832934201D9032367E0214B74
:102308009B6803F00C03042BEED127E07B685B6825
:10231800022B1DD10AE0FEF7A1FA0246FB68D31A88
:1023280041F28832934201D9032350E0154B9B6850
:1023380003F00C03082BEED110E0FEF78FFA0246EB
:10234800FB68D31A41F28832934201D903233EE055
:102358000C4B9B6803F00C03002BEED10849084B8B
:102368001B6823F00F023B6813430B60044B1B6888
:1023780003F00F023B689A4206D0012327E000BF12
:10238800003C0240003802407B681B6803F00403ED
:10239800002B08D01049104B9B6823F4E0527B684F
:1023A800DB6813438B607B681B6803F00803002B12
:1023B80009D00949084B9B6823F460427B681B6974
:1023C800DB0013438B600020FEF71EFA002318463B
:1023D8001037BD4680BD00BF0038024080B58CB0C4
:1023E80000AFF860B9607A60FB68002B29D1002340
:1023F800BB612B4A2A4B1B6B43F001031363284B29
:102408001B6B03F00103BB61BB694FF48073FB6175
:1024180002233B620323BB6200237B620023FB622F
:1024280007F11C0319461F48FEF7D8FD1C481C4B32
:102438009B6823F0EC62B9687B680B4313438360A5
:1024480029E000237B61164A154B1B6B43F00403FC
:102458001363134B1B6B03F004037B617B694FF41D
:102468000073FB6102233B620323BB6200237B6290
:102478000023FB6207F11C0319460B48FEF7AEFD6B
:102488000748074B9B6823F078427B68D900BB68F4
:102498000B431343836000BF3037BD4680BD00BF88
:1024A80000380240000002400008024080B400AF3B
:1024B800044A044B1B6843F40023136000BFBD4665
:1024C80080BC70470038024080B400AF044A044B17
:1024D8001B6823F40023136000BFBD4680BC70470F
:1024E8000038024080B48BB000AF0023FB610023AA
:1024F8007B620023BB6100233B62364B9B6803F081
:102508000C03042B06D0082B07D0002B58D1324BD4
:102518003B6258E0314B3B6255E02E4B5B6803F061
:102528003F03FB612B4B5B6803F48003002B17D040
:102538002A4AFB69B2FBF3F2264B596847F6C07387
:102548000B4047F6C071F960F96891FAA1F1B960DA
:10255800B968B1FA81F1CB4003FB02F37B6216E064
:102568001D4AFB69B2FBF3F21A4B596847F6C07370
:102578000B4047F6C0717961796991FAA1F17960E8
:102588007968B1FA81F1CB4003FB02F37B62114B0E
:102598005B6803F440324FF440333B613B6993FA84
:1025A800A3F33B603B68B3FA83F322FA03F30133E6
:1025B8005B00BB617A6ABB69B2FBF3F33B6202E082
:1025C800054B3B6200BF3B6A18462C37BD4680BCB2
:1025D800704700BF003802400024F40040787D01B5
:1025E80080B582B000AFFFF77DFF01460D4B9B68B9
:1025F80003F0F002F0237B607B6893FAA3F33B605F
:102608003B68B3FA83F322FA03F3074AD35C21FA4F
:1026180003F3064A1360054B1B6818460837BD4686
:1026280080BD00BF003802408C2A0008F014012049
:1026380080B582B000AFFFF7D3FF01460B4B9B6814
:1026480003F4E0524FF4E0537B607B6893FAA3F302
:102658003B603B68B3FA83F322FA03F3044AD35C82
:1026680021FA03F318460837BD4680BD00380240FA
:102678008C2A000880B582B000AFFFF7B1FF014691
:102688000B4B9B6803F460424FF460437B607B68AC
:1026980093FAA3F33B603B68B3FA83F322FA03F39C
:1026A800044AD35C21FA03F318460837BD4680BDB7
:1026B800003802408C2A000880B48BB000AF7860E4
:1026C8007B680F221A60584B1B6803F48023002B89
:1026D80004D07B684FF4A0225A600DE0524B1B686F
:1026E80003F48033002B04D07B684FF480325A60A7
:1026F80002E07B6800225A604B4B1B6803F0010321
:10270800002B03D07B680122DA6002E07B6800229C
:10271800DA60454B1B6803F0F802F823BB61BB691C
:1027280093FAA3F37B617B69B3FA83F3DA407B689E
:102738001A613D4B1B6F03F00403002B03D07B6829
:1027480005229A600CE0384B1B6F03F00103002B45
:1027580003D07B6801229A6002E07B6800229A60BD
:10276800314B5B6F03F00103002B03D07B68012220
:102778005A6102E07B6800225A612B4B1B6803F008
:102788008073002B03D07B6802229A6102E07B6889
:1027980001229A61244B5B6803F480027B68DA614A
:1027A800214B5B6803F03F027B681A621E4B5A6834
:1027B80047F6C073134047F6C0723A623A6A92FA13
:1027C800A2F2BA60BA68B2FA82F223FA02F27B681D
:1027D8005A62154B5B6803F4403303F580335A00A3
:1027E8004FF44033FB61FB6993FAA3F3FB60FB688A
:1027F800B3FA83F3DA407B689A620B4B5B6803F0A9
:1028080070624FF070637B627B6A93FAA3F33B615B
:102818003B69B3FA83F3DA407B68DA6200BF2C378E
:10282800BD4680BC704700BF0038024080B483B00A
:1028380000AF786039607B680F221A60114B9B6883
:1028480003F003027B685A600E4B9B6803F0F002AA
:102858007B689A600B4B9B6803F4E0527B68DA60F4
:10286800084B9B6803F46043DA087B681A61064BDF
:102878001B6803F00F023B681A6000BF0C37BD46A7
:1028880080BC704700380240003C024080B500AF71
:10289800064BDB6803F08003002B04D000F00AF835
:1028A800034B80221A7000BF80BD00BF0038024071
:1028B8000E38024080B483B000AF00237B607B6891
:1028C80000BF0C37BD4680BC704700BFDFF834D06E
:1028D800002103E00C4B5B58435004310B480C4B70
:1028E80042189A42F6D30B4A02E0002342F8043B0E
:1028F800094B9A42F9D3FDF75BFD00F011F8FDF79B
:10290800B1FC7047FFFF0420B02A0008F014012032
:10291800201901202019012040190120FEE700009C
:1029280070B50F4E0F4D761BB61018BF002405D09A
:10293800013455F8043B9847A642F9D10A4E0B4D8D
:10294800761B00F08BF8B61018BF002406D00134AF
:1029580055F8043B9847A642F9D170BD70BD00BF39
:10296800A42A0008A42A0008AC2A0008A42A0008FF
:10297800024B13B1024800F005B870470000000090
:1029880099290008002301461A46184600F014B891
:1029980038B5074D074C2C1BA41005D0013C55F841
:1029A800043D9847002CF9D1BDE8384000F05CB8E8
:1029B800B02A0008AC2A00082DE9F047254C256804
:1029C800D5F848410646884692469946C4B3606899
:1029D8001F2817DC431C76B104EB80050122C5F8DB
:1029E80088A0D4F8881182401143022EC4F88811B7
:1029F800C5F808911ED00230636044F8208000209A
:102A0800BDE8F087144B03B34FF4C870AFF30080F0
:102A18000446D0B1D5F84831002780E88800C5F8C9
:102A2800484138460123C4F88871C4F88C71002ED7
:102A3800E1D0D1E7D4F88C110A43C4F88C21DAE745
:102A480005F5A674C5F84841C1E74FF0FF30BDE869
:102A5800F08700BFA02A000800000000F8B500BFFA
:102A6800F8BC08BC9E467047F8B500BFF8BC08BC67
:042A78009E467047BF
:102A7C000000000000000000010203040607080922
:102A8C000000000001020304010203040607080908
:082A9C0043000000F8140120C2
:082AA400792900083502000841
:042AAC000D0200080F
:102AB0000024F4000000000000000000E4170120E2
:102AC0004C180120B4180120000000000000000094
:102AD00000000000000000000000000000000000F6
:102AE0000000000000000000000000009C2A000818
:102AF00000000000000000000000000000000000D6
:102B000000000000000000000000000000000000C5
:102B100000000000000000000000000000000000B5
:102B200000000000000000000000000000000000A5
:102B30000000000000000000000000000000000095
:102B40000000000000000000000000000000000085
:102B50000000000000000000000000000000000075
:102B600001000000000000000E33CDAB34126DE612
:102B7000ECDE05000B00000000000000000000007B
:102B80000000000000000000000000000000000045
:102B90000000000000000000000000000000000035
:102BA0000000000000000000000000000000000025
:102BB0000000000000000000000000000000000015
:04000005080028D5F2
:00000001FF
